:100000000C94680B0C94930B0C94930B0C94930B23
:100010000C94930B0C94930B0C94930B0C94930BE8
:100020000C94930B0C94930B0C94930B0C94930BD8
:100030000C94930B0C94930B0C94930B0C94930BC8
:100040000C94930B0C9468A10C94930B0C94930B4D
:100050000C94930B0C94930B0C94DC8C0C94C1AD0E
:100060000C94930B0C945B710C94930B0C94930B6A
:100070000C94930B0C94930B0C94930B0C94930B88
:100080000C94FB760C94930B0C94930B0C94930BA5
:100090000C94930B0C94930B0C94930B0C94F8AA64
:1000A0000C94930B0C94930B0C94CD760C94930BB3
:1000B0000C94930B0C94930B0C94930B0C949F76D1
:1000C0000C94930B0C94930B0C94930B0C94930B38
:1000D0000C94930B0C94930B0C94930B0C94930B28
:1000E0000C94930B358D428D608D6D8D898D968D21
:1000F000B28DB48DBD8DC98DE58DF28D0E8E1B8EAA
:10010000378E448E5E8E084AD73B3BCE016E84BC50
:10011000BFFDC12F3D6C74319ABD56833DDA3D0061
:10012000C77F11BED9E4BB4C3E916BAAAABE0000AA
:1001300000803F05A84CCDB2D44EB93836A9020C88
:1001400050B9918688083CA6AAAA2ABE0000008061
:100150003F6563686F3A0048617264636F64656409
:100160002044656661756C742053657474696E67AC
:1001700073204C6F616465640053746F7265642012
:1001800073657474696E67732072657472696576DD
:100190006564005A2050726F6265204C656E67740A
:1001A000683A2000536572766F20456E6473746FF1
:1001B000702073657474696E67733A002044002080
:1001C00049002020204D3330312050005049442038
:1001D00073657474696E67733A00205A0020590081
:1001E00020204D323036205800486F6D65206F66F4
:1001F0006673657420286D6D293A00204500205AE9
:100200000020580020420020540020204D3230357C
:10021000205300416476616E636564207661726983
:1002200061626C65733A20533D4D696E2066656569
:10023000647261746520286D6D2F73292C20543DE4
:100240004D696E2074726176656C206665656472B6
:1002500061746520286D6D2F73292C20423D6D69D6
:100260006E696D756D207365676D656E7420746958
:100270006D6520286D73292C20583D6D6178696D5E
:10028000756D205859206A65726B20286D6D2F732B
:10029000292C20205A3D6D6178696D756D205A209A
:1002A0006A65726B20286D6D2F73292C2020453DC7
:1002B0006D6178696D756D2045206A65726B2028C7
:1002C0006D6D2F73290020540020204D32303420D2
:1002D0005300416363656C65726174696F6E3A20A7
:1002E000533D616363656C65726174696F6E2C2048
:1002F000543D7265747261637420616363656C65FB
:10030000726174696F6E00204500205A0020590008
:1003100020204D3230312058004D6178696D756D67
:1003200020416363656C65726174696F6E20286D2E
:100330006D2F7332293A00204500205A00205900C1
:1003400020204D3230332058004D6178696D756D35
:100350002066656564726174657320286D6D2F7306
:10036000293A00204500205A0020590020204D390C
:100370003220580053746570732070657220756E5A
:1003800069743A0053657474696E67732053746FAF
:10039000726564006563686F3A004572726F723A05
:1003A000005072696E7465722073746F707065644A
:1003B0002064756520746F206572726F72732E20D1
:1003C00046697820746865206572726F7220616E6C
:1003D0006420757365204D39393920746F2072653A
:1003E00073746172742E202854656D706572617427
:1003F0007572652069732072657365742E2053656C
:10040000742069742061667465722072657374610A
:100410007274696E6729005072696E746572206823
:10042000616C7465642E206B696C6C282920636193
:100430006C6C656421005072696E7465722068612D
:100440006C7465642E206B696C6C28292063616C68
:100450006C656421006F6B00526573656E643A20B1
:10046000002200556E6B6E6F776E20636F6D6D614D
:100470006E643A202200432D3E003A0020205400B2
:10048000432D3E002020202041444320423A004991
:1004900073696E6B65643A00565F35563A00565F75
:1004A0003234563A0050726573737572653A007A49
:1004B0005F6D61783A20007A5F6D696E3A20005A6C
:1004C000204F6666736574007A5F6D61783A20002C
:1004D0007A5F6D696E3A2000795F6D61783A20002D
:1004E000795F6D696E3A2000785F6D61783A20001F
:1004F000785F6D696E3A2000205A3A0020593A0020
:1005000020436F756E7420583A200020453A002031
:100510005A3A0020593A00583A004649524D57413C
:1005200052455F4E414D453A4D61726C696E2056A1
:10053000313B20537072696E7465722F6772626C02
:10054000206D617368757020666F722067656E3606
:10055000204649524D574152455F55524C3A6874B6
:100560007470733A2F2F6769746875622E636F6DAC
:100570002F4572696B5A616C6D2F4D61726C696E9B
:100580002F2050524F544F434F4C5F5645525349C2
:100590004F4E3A312E30204D414348494E455F542D
:1005A0005950453A4D656E64656C20455854525516
:1005B0004445525F434F554E543A312055554944B6
:1005C0003A30303030303030302D303030302D3027
:1005D0003030302D303030302D3030303030303021
:1005E00030303030300A0020423A0020453A005482
:1005F0003A0020573A0020453A00543A0020424041
:100600003A0020403A00202F003A00205400202FCA
:100610000020423A00202F006F6B20543A002569D9
:10062000206D696E2C20256920736563000A002007
:100630005A3A200020593A200020583A20004265BA
:1006400064000A00205A3A200020593A200020581D
:100650003A20004265640020643A200020623A207B
:100660000045716E20636F656666696369656E74C7
:10067000733A20613A2000486F6D6520582F592049
:100680006265666F7265205A005A2070726F6265EB
:10069000206F75742E2062656400486F6D65205868
:1006A0002F59206265666F7265205A00FFFFFF00B8
:1006B00000564300006A43008071430000A04000E0
:1006C00000A040000000400000000000000000000A
:1006D000000000000000000000000000000000001A
:1006E00000564300006A43008071430A00207A3AB2
:1006F000200020793A200020783A200042656400EA
:100700005072696E7465722073746F7070656420C6
:1007100064756520746F206572726F72732E204647
:10072000697820746865206572726F7220616E64EA
:1007300020757365204D39393920746F20726573C7
:10074000746172742E202854656D706572617475C1
:1007500072652069732072657365742E2053657409
:1007600020697420616674657220726573746172A9
:1007700074696E6729006F6B004E6F204C696E655F
:10078000204E756D626572207769746820636865B4
:10079000636B73756D2C204C617374204C696E65AE
:1007A0003A20004E6F20436865636B73756D207748
:1007B000697468206C696E65206E756D6265722C57
:1007C000204C617374204C696E653A200063686543
:1007D000636B73756D206D69736D617463682C2034
:1007E0004C617374204C696E653A20004C696E65EB
:1007F000204E756D626572206973206E6F74204C97
:10080000617374204C696E65204E756D6265722B44
:10081000312C204C617374204C696E653A20004D78
:10082000313130002020506C616E6E657242756609
:1008300066657242797465733A2000204672656578
:10084000204D656D6F72793A2000416E647265616A
:100850002043656C616E692C20464142746F74754B
:100860006D20506572736F6E616C204661627269B3
:100870006361746F7200207C20417574686F723AF6
:100880002000417072203133203230313520303930
:100890003A35323A303900204C6173742055706417
:1008A000617465643A20005620312E302E30303786
:1008B000004D61726C696E20666F72204641427411
:1008C0006F74756D20506572736F6E616C20466138
:1008D0006272696361746F720020536F667477612E
:1008E0007265205265736574002057617463686493
:1008F0006F67205265736574002042726F776E20B7
:100900006F75742052657365740020457874657244
:100910006E616C20526573657400506F7765725517
:1009200070007374617274002200656E7175656980
:100930006E672022002200656E717565696E672002
:1009400022006563686F3A0020746F6F206C6F6ED1
:100950006720657874727573696F6E207072657642
:10096000656E7465640020636F6C642065787472D2
:100970007573696F6E2070726576656E746564005C
:100980004572726F723A0054656D7065726174756C
:1009900072652068656174656420626564207377A0
:1009A000697463686564206F66662E204D415854F3
:1009B000454D502074726967676572656420212116
:1009C000003A204578747275646572207377697493
:1009D00063686564206F66662E204D494E54454D10
:1009E00050207472696767657265642021003A203F
:1009F000457874727564657220737769746368658D
:100A000064206F66662E204D415854454D50207429
:100A10007269676765726564202100202D20496E28
:100A200076616C6964206578747275646572206E95
:100A3000756D62657220210070012C019001270103
:100A4000B0012201C0011D01F001180110021301C3
:100A500030020E016002090190020401C002FF0091
:100A60000003FA004003F5008003F000D003EB0020
:100A70002004E6007004E100E004DC004005D7003B
:100A8000C005D2004006CD00D006C8008007C300D4
:100A90003008BE00F008B900C009B400B00AAF00C9
:100AA000B00BAA00D00CA500000EA000500F9B00B8
:100AB000C01096005012910000148C00C0158700E1
:100AC000B0178200B0197D00D01B7800001E7300A3
:100AD00040206E0090226900F024640040275F00EF
:100AE00090295A00E02B5500102E500020304B006A
:100AF00010324600E033410090353C00103737009B
:100B000070383200A0392D00B03A2800A03B2300F5
:100B1000603C1E00103D1900903D1400103E0F0077
:100B2000703E0A00C03E0500003F000050494420CE
:100B30004175746F74756E652066696E697368655A
:100B400064212050757420746865206C6173742072
:100B50004B702C204B6920616E64204B6420636FC6
:100B60006E7374616E74732066726F6D2061626F54
:100B7000766520696E746F20436F6E666967757263
:100B80006174696F6E2E6800504944204175746F1E
:100B900074756E65206661696C6564212074696D89
:100BA000656F75740020403A006F6B20543A006FF7
:100BB0006B20423A00504944204175746F74756E41
:100BC00065206661696C6564212054656D7065728D
:100BD000617475726520746F6F20686967680020A2
:100BE0004B643A2000204B693A2000204B703A2099
:100BF0000020436C617373696320504944200020D6
:100C000054753A2000204B753A2000206D61783AE7
:100C10002000206D696E3A200020643A2000206296
:100C20006961733A2000D0002C01E0002701000127
:100C3000220110011D012001180130011301500192
:100C40000E016001090180010401A001FF00C00143
:100C5000FA00F001F5001002F0004002EB00800203
:100C6000E600B002E100F002DC004003D700900390
:100C7000D200E003CD004004C800B004C30030053A
:100C8000BE00B005B9005006B4000007AF00B007C1
:100C9000AA009008A5008009A000800A9B00B00B64
:100CA0009600F00C9100600E8C00E00F8700A01100
:100CB000820080137D0080157800B0177300001A41
:100CC0006E00701C6900001F6400B0215F0060248A
:100CD0005A0010275500C0295000602C4B00E02E10
:100CE00046003031410060333C006035370020372A
:100CF0003200B0382D00103A2800303B2300303C41
:100D00001E00003D1900A03D1400303E0F00A03E23
:100D10000A00F03E0500403F00000A0020000A00E3
:100D2000207A3A200020793A200020783A200045A5
:100D3000303A20005A3A2000593A2000583A200010
:100D40004D53312C4D53322050696E730A0024F4F8
:100D500004D9201BC40C5C0E9804C4095F0265070B
:100D60007101F405F900FB04B30048048700C103D6
:100D700069005803550003034500BE023A0084028F
:100D8000310053022A002902250004022000E40158
:100D90001C00C8011900AF0117009801140084015C
:100DA0001300710110006101100051010E00430198
:100DB0000D0036010B002B010B0020010B0015016B
:100DC00009000C01090003010800FB000800F30002
:100DD0000800EB000700E4000600DE000600D80073
:100DE0000600D2000600CC000500C7000500C200C6
:100DF0000500BD000400B9000400B5000400B10006
:100E00000400AD000400A9000400A5000300A20036
:100E100003009F0004009B0003009800030095005E
:100E2000020093000300900003008D0002008B007D
:100E30000300880002008600020084000300810095
:100E400002007F0002007D0002007B0002007900AA
:100E500002007700010076000200740002007200B8
:100E60000100710002006F0002006D0001006C00C3
:100E700002006A00010069000200670001006600CC
:100E800001006500010064000200620001006100D1
:100E90000100600001005F0002005D0001005C00D5
:100EA00001005B0001005A000100590001005800D8
:100EB00001005700010056000100550001005400D8
:100EC00001005300000053000100520001005100D6
:100ED0000100500001004F0001004E0000004E00D4
:100EE00001004D0001004C0001004B0000004B00D0
:100EF00001004A00010049000100480000004800CC
:100F000001004700010046000000460001004500C6
:100F100000004500010044000100430000004300C0
:100F200001004200000042000100410000004100B9
:100F30000100400001003F0000003F0001003E00B2
:100F400000003E0001003D0000003D0001003C00AB
:100F500000003C0000003C0001003B0000003B00A2
:100F600001003A0000003A00010039000000390099
:100F70000100380000003800000038000100370090
:100F80000000370001003600000036000000360087
:100F9000010035000000350000003500010034007C
:100FA0000000340000003400010033000000330072
:100FB0000000330001003200000032000000320067
:100FC000010031000000310000003100010030005C
:100FD000000030000000300001002F0000002F0052
:100FE00000002F0000002F0001002E0000002E0046
:100FF00000002E0001002D0000002D0000002D003B
:1010000000002D0001002C0000002C0000002C002E
:1010100000002C0001002B0000002B0000002B0022
:1010200000002B0001002A0000002A0000002A0016
:1010300000002A000100290000002900000029000A
:1010400000002900000029000100280000002800FD
:1010500000002800000028000000280001002700F0
:1010600000002700000027000000270000002700E4
:1010700001002600000026000000260000002600D7
:1010800000002600010025000000250000002500CA
:1010900000002500000025000000250001002400BC
:1010A00000002400000024000000240000002400B0
:1010B00001002300000023000000230000002300A3
:1010C0000000230000002300000023000100220094
:1010D0000000220000002200000022000000220088
:1010E000000022000100210000002100000021007A
:1010F000000021000000210000002100000021006C
:10110000010020000000200000002000000020005E
:10111000000020000000200000002000000020004F
:1011200001001F0000001F0000001F0000001F0042
:1011300000001F0000001F0000001F0001001E0033
:1011400000001E0000001E0000001E00000024F42D
:10115000D43050C38E20C2A24017828B7011127AF5
:10116000910D816CD90AA861E108C75866076151E1
:1011700043061E4B5D05C145A7041A411104093DF4
:101180009803713931034036DB0265339102D43064
:101190005402802E1D02632CEE01752AC501B02871
:1011A000A001102781018F2564012B244B01E0222F
:1011B0003401AC211F018D200D01801FFC00841E15
:1011C000ED00971DDF00B81CD200E61BC600201BF7
:1011D000BC00641AB200B219A8000A19A0006A186B
:1011E0009900D117910040178B00B5168400311675
:1011F0007E00B31579003A157300C7146F005814B8
:101200006A00EE1366008813630025135E00C712A0
:101210005B006C12570015125400C111510070117F
:101220004F0021114B00D61049008D104700461089
:10123000440002104200C00F4000800F3E00420FE9
:101240003C00060F3B00CB0E3800930E37005C0EBF
:101250003500270E3400F30D3200C10D3100900D22
:101260003000600D2E00320D2D00050D2C00D90C24
:101270002B00AE0C2900850C29005C0C2700350CD6
:1012800027000E0C2600E80B2400C40B2400A00B42
:1012900023007D0B23005A0B2100390B2100180B72
:1012A0002000F80A1F00D90A1E00BB0A1E009D0A72
:1012B0001D00800A1D00630A1C00470A1B002C0A3F
:1012C0001B00110A1A00F7091A00DD091900C409E8
:1012D0001900AB091900920917007B09180063096E
:1012E00017004C09160036091600200916000A09D5
:1012F0001500F5081500E0081400CC081400B80823
:101300001400A4081400900813007D0812006B0854
:101310001300580812004608120034081100230870
:1013200011001208110001081100F0071000E00779
:101330001000D0071000C0071000B0070F00A10771
:10134000100091070E0083070F0074070F00650758
:101350000E0057070E0049070E003B070D002E0731
:101360000E0020070D0013070D0006070D00F906FB
:101370000C00ED060D00E0060C00D4060C00C806BB
:101380000C00BC060C00B0060C00A4060B0099066D
:101390000C008D060B0082060B0077060B006C0616
:1013A0000B0061060A0057060B004C060A004206B5
:1013B0000A0038060A002E060A0024060A001A0649
:1013C0000A001006090007060A00FD050900F405D9
:1013D0000900EB050900E2050900D9050900D0055F
:1013E0000900C7050900BE050900B5050800AD05DF
:1013F0000800A50509009C050800940508008C0557
:101400000800840508007C050800740508006C05C8
:101410000700650508005D050700560508004E0534
:10142000070047050700400508003805070031059B
:1014300007002A050700230507001C0506001605FE
:1014400007000F0507000805060002050700FB045A
:101450000600F5040700EE040600E8040600E204B6
:101460000700DB040600D5040600CF040600C9040B
:101470000600C3040600BD040600B7040600B1045C
:101480000500AC040600A6040600A00405009B04A9
:10149000060095040500900406008A0405008504F2
:1014A0000500800406007A04050075040500700438
:1014B00005006B04050066040500610405005C047A
:1014C000050057040500520405004D0405004804BA
:1014D0000500430405003E0404003A0405003504F9
:1014E0000500300404002C04050027040400230434
:1014F00005001E0404001A0404001604050011046B
:1015000004000D04040009040500040404000004A0
:101510000400FC030400F8030400F4030400F003D7
:101520000400EC030400E8030400E4030400E00307
:101530000400DC030400D8030400D4030400D00337
:101540000400CC030400C8030300C5030300656363
:10155000686F3A00205A3A0020593A0020583A0061
:10156000656E6473746F7073206869743A2000004C
:10157000002100240027002A002D00300033000144
:10158000010000040107010A0100002200250028D3
:10159000002B002E0031003400020100000501087C
:1015A000010B01000020002300260029002C002F41
:1015B00000320000010000030106010901050505D4
:1015C00005070508080808020202020A0A080804BA
:1015D00004040401010101010101010303030303E8
:1015E000030303040707070C0C0C0C0C0C0C0C0277
:1015F00002020206060606060606060B0B0B0B0B7E
:101600000B0B0B0102102020080810204010204076
:1016100080020102010804020101020408102040B6
:1016200080804020100804020180040201804020D4
:1016300010080402010804020101020408102040FD
:101640008001020408102040800000090A02080BF3
:101650000C0D07060304010000000000000000005C
:10166000000000000000000000000000000000007A
:10167000000000000011100F00000000000000003A
:101680000000000000000000000000000000004911
:101690004E46494E4954594E414ECDCCCC3D0AD7C9
:1016A000233C17B7D13877CC2B329595E6241FB160
:1016B0004F0A000020410000C84200401C4620BCE8
:1016C000BE4CCA1B0E5AAEC59D747F1FEF7194A904
:1016D00011241FBECFEFD1E2DEBFCDBF15E0A0E0E9
:1016E000B2E0E2EAFCE601E00BBF02C007900D9217
:1016F000A63CB107D9F71BBE10E1A6ECB5E001C0CE
:101700001D92A631B107E1F716E1C0EDD6E104C0A4
:101710002297FE010E9409B6CA3CD107C9F70E9470
:10172000DDB00C944FB60C940000CF93DF93BC0156
:101730008230910510F462E070E0A0911210B09137
:101740001310ED0140E050E0E0E0F0E021C08881BE
:1017500099818617970769F48A819B81309719F0E0
:101760009383828304C09093131080931210FE0120
:1017700034C06817790738F44115510519F08417FA
:10178000950708F4AC01FE018A819B819C01E90167
:101790002097E9F641155105A9F1CA01861B970B5F
:1017A000049708F4BA01E0E0F0E02AC08D919C9122
:1017B000119784179507F9F46417750781F4129649
:1017C0008D919C911397309719F09383828304C075
:1017D0009093131080931210FD0132964CC0CA01F1
:1017E000861B970BFD01E80FF91F61937193029718
:1017F0008D939C9340C0FD01828193819C01D9010E
:101800001097A1F68091101090911110892B41F43E
:101810008091A6049091A7049093111080931010CA
:101820004091A8045091A9044115510541F44DB7C8
:101830005EB78091A4049091A504481B590B209198
:10184000101030911110CA01821B930B8617970755
:1018500080F0AB014E5F5F4F8417950750F0420F49
:10186000531F5093111040931010F901619371931D
:1018700002C0E0E0F0E0CF01DF91CF910895CF9377
:10188000DF93009709F450C0EC0122971B821A8263
:10189000A0911210B0911310109709F140E050E0A0
:1018A000AC17BD0708F1BB83AA83FE0121913191DA
:1018B000E20FF31FAE17BF0779F48D919C9111973A
:1018C000280F391F2E5F3F4F3983288312968D9141
:1018D0009C9113979B838A834115510571F4D09392
:1018E0001310C093121020C012968D919C911397E3
:1018F000AD01009711F0DC01D3CFFA01D383C2838D
:1019000021913191E20FF31FCE17DF0769F488812F
:101910009981280F391F2E5F3F4FFA0131832083B1
:101920008A819B8193838283DF91CF910895A0E088
:10193000B0E0EDE9FCE00C941AB66C01009729F4D4
:10194000CB010E94950B6C01C1C08EEF882E8FEFEA
:10195000982E8C0C9D1C8601060F171F0815190563
:1019600008F4B2C0F401A081B181A617B707B8F09E
:10197000A530B10508F4AAC0CD01049786179707D2
:1019800008F4A4C01297A61BB70BF801A193B1935A
:10199000D4016D937C93CF010E943F0C97C07B01D3
:1019A000EA1AFB0AEEEFFFEFEE0EFF1E36016A0E9B
:1019B0007B1EC0911210D0911310AA24BB24442482
:1019C00055244AC0C615D705E1F5488159814E1501
:1019D0005F05B8F1CA0104978E159F05B0F4129601
:1019E000A40FB51FF401B183A0832A813B81411468
:1019F000510431F0D20113963C932E93129766C096
:101A0000309313102093121061C08A819B81F801DA
:101A100093838283425050404E195F095183408323
:101A20004114510431F0D20113961C930E93129776
:101A300004C01093131000931210F401718360839B
:101A400045C088819981A816B90608F45C012E0169
:101A50008A819B819C01E901209709F0B3CF809195
:101A600010109091111086159705E9F4A616B70687
:101A7000D0F42091A8043091A9042115310541F436
:101A80002DB73EB78091A4049091A504281B390B73
:101A900002171307C8F41093111000931010D4010B
:101AA0006D937C9313C0CB010E94950BEC010097C2
:101AB00059F0F40140815181B6010E942D10C601F8
:101AC0000E943F0C6E0102C0CC24DD24C601CDB7BC
:101AD000DEB7E0E10C9436B6A0E0B0E0E2E7FDE06E
:101AE0000C941EB6EC015B016115710519F0FB0148
:101AF00091838083F9908F2D90E00E940DB6892B01
:101B0000C9F7FDE2FF1621F4F990EE24E39405C035
:101B10002BE2F21609F4F990EE248E0101501040E8
:101B2000C8016FE876E143E050E00E94FB0F892B8B
:101B300001F58E010E5F1F4FC80162E976E145E0B5
:101B400050E00E94FB0F892B19F48E01095F1F4F93
:101B5000A114B10419F0F50111830083E0FC04C065
:101B600070E090E080E814C070E090E080E86FEFF3
:101B700008C1C80167E976E143E050E00E94FB0F2D
:101B8000892B69F4A114B10429F470E090E080EC91
:101B90006FE7F7C02296F501D183C083F6CF882482
:101BA000992440E050E060E070E0EF2DE053EA302F
:101BB000A0F5F2E0EF2A8E2D90E09C0128703070A5
:101BC000E2FE06C0232B79F50894811C911C2BC0E2
:101BD000232B19F0089481089108DB01CA0112E057
:101BE000880F991FAA1FBB1F1A95D1F7480F591FBD
:101BF0006A1F7B1F440F551F661F771F4E0F511D15
:101C0000611D711D483929E9520729E9620729E157
:101C1000720748F084E0E82A06C0EE3F31F4E3FCA6
:101C200039C098E0E92AF990C0CFE53311F0E531E9
:101C300089F529912D3219F4E0E1EE2A05C02B3205
:101C400019F081E090E003C0299182E090E0E22F5A
:101C5000E053EA3018F0C81BD90B1CC020E030E07C
:101C6000FCE020383F075CF4C901880F991F880FFA
:101C7000991F280F391F220F331F2E0F311DE99195
:101C8000E053EA3068F3E4FE03C0309521953F4FFE
:101C9000820E931ECE2CDD24E1FE07C0A114B104F8
:101CA00021F02197F501D183C083CB01BA010E94B5
:101CB00066B27B018C01F3E0CF22DD2423E0C21663
:101CC000D10421F417FB109517F9109557016801FD
:101CD000C801B70120E030E040E050E00E94C6B10A
:101CE000882309F44AC097FE0DC02EEAE22E26E1B1
:101CF000F22E9094819491089394C0E2D0E000E099
:101D000010E012C096ECE92E96E1F92EF6CFF7011D
:101D10002591359145915491C601B5010E94A6B413
:101D20005B016C018C1A9D0A8C169D0684F7D59573
:101D3000C7950F5F1F4F0630110529F08CEF9FEFFD
:101D4000E80EF91EF1CFC501D6017C018D018C2D65
:101D5000880F8D2D881F8F3F51F0C601B50120E0FF
:101D600030E040E050E00E94C6B1882331F482E2C6
:101D700090E090931510809314107E2D9F2D802F4E
:101D8000612F272F392F482F562FB901CA01CDB700
:101D9000DEB7ECE00C943AB62F923F925F926F92CE
:101DA0007F928F929F92AF92BF92CF92DF92EF92EB
:101DB000FF920F931F93CF93DF938C011B01EA01D6
:101DC0006115710519F0FB0191838083209749F01B
:101DD000CE010297839728F020E030E040E050E009
:101DE000F6C0F801A1908F018A2D90E00E940DB6F7
:101DF000892BB9F7FDE2AF1631F4F801A1908F01FC
:101E00005524539407C0FBE2AF1619F4F801A190D2
:101E10008F015524209719F0C031D105C1F4F0E3AA
:101E2000AF1679F4F8018081883711F0883549F4CC
:101E3000F801A1800E5F1F4FF2E05F2AC0E1D0E001
:101E400006C0209721F480E3A816E9F427C0C83023
:101E5000D10531F1C930D10524F4C230D10531F5B5
:101E60000CC0CA30D10589F0C031D105F9F4C12CBC
:101E7000D12CE12CB8E0FB2E28C0C12CD12CE12CB8
:101E8000A0E4FA2E22C0CAE0D0E0FCECCF2EFCEC9D
:101E9000DF2EFCECEF2EFCE0FF2E17C0C8E0D0E0F8
:101EA000C12CD12CE12CE0E1FE2E0FC09E01442775
:101EB00037FD4095542F60E070E080E090E80E948C
:101EC000B6B5C901DA016C017D0120E030E040E0E7
:101ED00050E060E03E01882477FC8094982C70EDFF
:101EE000B72EBA0CE9E0EB1570F48A2D81548A31D3
:101EF00018F499ECB92E06C08A2D81568A3150F516
:101F000089EAB82EBA0C8B2D90E08C179D0714F53A
:101F10006F3FE1F0C216D306E406F506B0F0CA0141
:101F2000B901A40193010E9478B59B01AC012B0D6E
:101F3000311D411D511D2130F0E03F07F0E04F07FA
:101F4000F0E85F0710F461E001C06FEFF801A190C5
:101F50008F01C5CF2114310481F0662331F0015087
:101F60001040F1011183008308C051FE1AC00250D5
:101F70001040F1011183008314C067FF12C050FCB0
:101F800005C02FEF3FEF4FEF5FE704C020E030E0E8
:101F900040E050E882E290E0909315108093141096
:101FA00016C050FE08C050954095309521953F4F82
:101FB0004F4F5F4F0CC057FF0AC082E290E09093F2
:101FC0001510809314102FEF3FEF4FEF5FE7B9012B
:101FD000CA01DF91CF911F910F91FF90EF90DF9099
:101FE000CF90BF90AF909F908F907F906F905F90B9
:101FF0003F902F900895FB01DC014150504088F044
:102000008D9181341CF08B350CF4805E65916134C8
:102010001CF06B350CF4605E861B611171F3990B3B
:102020000895881BFCCFFB0155915523A9F0BF01F2
:10203000DC014D9145174111E1F759F4CD010590AF
:10204000002049F04D9140154111C9F3FB014111A8
:10205000EFCF81E090E001970895FB01DC0102C021
:1020600001900D9241505040D8F70895FC018191A4
:10207000861721F08823D9F7992708953197CF0142
:102080000895FB01DC0101900D920020E1F7089515
:10209000FB01DC014150504030F08D9101908019DE
:1020A00019F40020B9F7881B990B0895FB019F01D3
:1020B000423074F0453264F4642F77270E94F3B500
:1020C000805D8A330CF0895D8193CB010097A1F785
:1020D0001082C9010C948312AEE0B0E0E2E7F0E1B7
:1020E0000C9426B60D891E898EE08C831A83098391
:1020F0008FEF9FE79E838D839E01275E3F4FCE012A
:1021000001966F89788DA9010E9490102F813885E2
:10211000020F131FF80110822E96E4E00C9442B6D1
:10212000ABE0B0E0E6E9F0E10C9418B63C012B011D
:102130005A01FC0117821682838181FD03C06FEF73
:102140007FEFC6C19AE0892E1E010894211C311C24
:10215000F3012381F20123FD859123FF81912F015A
:10216000882309F4B2C1853239F423FD859123FF18
:1021700081912F01853229F490E0B3010E949312DE
:10218000E7CF982FFF24EE249924FFE1FF15D0F02C
:102190009B3269F09C3228F4903259F0933291F4DA
:1021A0000EC09D3249F0903369F441E024C052E002
:1021B000F52A84E0F82A28C098E0F92A25C0E0E151
:1021C000FE2A22C0F7FC29C0892F80538A3070F480
:1021D000F6FE05C0989C902C1124980E15C0E89C22
:1021E000E02C1124E80EF0E2FF2A0EC09E3229F402
:1021F000F6FC6BC140E4F42A07C09C3619F450E8A1
:10220000F52A02C0983649F4F20123FD959123FF87
:1022100091912F01992309F0B8CF892F85548330EC
:1022200018F08052833038F444E050E0A40EB51E1C
:102230005FE359830FC0933631F0933779F09335CC
:1022400009F056C020C0F5018081898342E050E04A
:10225000A40EB51E610101E010E012C0F501C080BE
:10226000D180F6FC03C06FEF7FEF02C0692D70E0F4
:1022700042E050E0A40EB51EC6010E9478128C0107
:102280005FE7F52214C0F501C080D180F6FC03C0E1
:102290006FEF7FEF02C0692D70E042E050E0A40EC6
:1022A000B51EC6010E946D128C0150E8F52AF3FE9E
:1022B00007C01AC080E290E0B3010E949312EA9432
:1022C0008E2D90E008171907A8F30EC0F601F7FC51
:1022D0008591F7FE81916F0190E0B3010E94931206
:1022E000E110EA94015010400115110579F7EAC098
:1022F000943611F0993669F5F7FE08C0F501208192
:1023000031814281538184E090E00AC0F5018081EF
:1023100091819C01442737FD4095542F82E090E045
:10232000A80EB91E9FE6F92257FF09C050954095A7
:10233000309521953F4F4F4F5F4FE0E8FE2ACA018D
:10234000B901A1012AE030E00E94BF12D82ED218B4
:1023500040C0953729F41F2D1F7E2AE030E01DC0B4
:102360001F2D197F9F3661F0903720F4983509F0C2
:10237000ACC00FC0903739F0983709F0A6C004C040
:1023800028E030E00AC0106114FD146020E130E064
:1023900004C014FD166020E132E017FF08C0F5010B
:1023A000608171818281938144E050E008C0F50131
:1023B00080819181BC0180E090E042E050E0A40E79
:1023C000B51EA1010E94BF12D82ED2188FE7F82E99
:1023D000F122F6FE0BC05EEFF522D91438F4F4FEBC
:1023E00007C0F2FC05C08FEEF82202C01D2D01C00F
:1023F000192DF4FE0DC0FE01ED0DF11D808180331D
:1024000019F499EEF92208C01F5FF2FE05C003C05F
:102410008F2D867809F01F5F0F2DF3FC14C0F0FE9E
:102420000FC01E1510F09D2C0BC09D2C9E0C911AF8
:102430001E2D06C080E290E0B3010E9493121F5F40
:102440001E15C0F304C01E1510F4E11A01C0EE24DD
:1024500004FF0FC080E390E0B3010E94931202FFDB
:102460001DC001FD03C088E790E00EC088E590E044
:102470000BC0802F867891F001FF02C08BE201C073
:1024800080E2F7FC8DE290E0B3010E94931206C057
:1024900080E390E0B3010E9493129A94D914C0F3A0
:1024A000DA94F101ED0DF11D808190E0B3010E94FD
:1024B0009312DD20A9F706C080E290E0B3010E94EC
:1024C0009312EA94EE20C1F743CEF301668177813F
:1024D000CB012B96E2E10C9434B6FC0105906150DF
:1024E00070400110D8F7809590958E0F9F1F08952A
:1024F000FC016150704001900110D8F780959095D3
:102500008E0F9F1F0895DC01FC01672F71917723C7
:10251000E1F7329704C07C916D9370836291AE179E
:10252000BF07C8F308950F931F93CF93DF938C01D8
:10253000EB018B8181FF1BC082FF0DC02E813F818B
:102540008C819D812817390764F4E881F981019312
:10255000F983E88306C0E885F985802F0995892BE2
:1025600031F48E819F8101969F838E8302C00FEF8D
:102570001FEFC801DF91CF911F910F910895FA01CC
:10258000AA27283051F1203181F1E8946F936E7FB2
:102590006E5F7F4F8F4F9F4FAF4FB1E03ED0B4E0A3
:1025A0003CD0670F781F891F9A1FA11D680F791FE4
:1025B0008A1F911DA11D6A0F711D811D911DA11DF5
:1025C00020D009F468943F912AE0269F1124301905
:1025D000305D3193DEF6CF010895462F4770405DA0
:1025E0004193B3E00FD0C9F7F6CF462F4F70405D4F
:1025F0004A3318F0495D31FD4052419302D0A9F7AA
:10260000EACFB4E0A6959795879577956795BA95A3
:10261000C9F700976105710508959B01AC010A2E69
:1026200006945795479537952795BA95C9F7620F40
:10263000731F841F951FA01D0895DF93CF93CDB7FF
:10264000DEB766970FB6F894DEBF0FBECDBF8091A0
:10265000000290910102A0910202B09103028F87C3
:10266000988BA98BBA8BFE013F9644E650E080819F
:10267000F999FECF1FBA52BD41BD80BD0FB6F89487
:10268000FA9AF99A0FBE4F5F5F4F4836510511F025
:102690003196EDCFE9E3F9E08081F999FECF1FBAD9
:1026A00052BD41BD80BD0FB6F894FA9AF99A0FBE9B
:1026B0004F5F5F4F4837510511F03196EDCFE9E29A
:1026C000F9E08081F999FECF1FBA52BD41BD80BDAE
:1026D0000FB6F894FA9AF99A0FBE4F5F5F4F4838D9
:1026E000510511F03196EDCFE9E4F9E08081F999D7
:1026F000FECF1FBA52BD41BD80BD0FB6F894FA9A05
:10270000F99A0FBE4F5F5F4F4839510511F031966E
:10271000EDCFEDE5F9E08081F999FECF1FBA52BD0A
:1027200041BD80BD0FB6F894FA9AF99A0FBE4F5F7B
:102730005F4F4C39510511F03196EDCFE1E6F9E0EC
:102740008081F999FECF1FBA52BD41BD80BD0FB641
:10275000F894FA9AF99A0FBE4F5F5F4F403A5105CD
:1027600011F03196EDCFE9E5F9E08081F999FECFDE
:102770001FBA52BD41BD80BD0FB6F894FA9AF99ABE
:102780000FBE4F5F5F4F443A510511F03196EDCFC8
:10279000E1E7F9E08081F999FECF1FBA52BD41BD52
:1027A00080BD0FB6F894FA9AF99A0FBE4F5F5F4F4B
:1027B000483A510511F03196EDCFE5E2F9E080811C
:1027C000F999FECF1FBA52BD41BD80BD0FB6F89436
:1027D000FA9AF99A0FBE4F5F5F4F4C3A510511F0CC
:1027E0003196EDCFE5E6F9E08081F999FECF1FBA89
:1027F00052BD41BD80BD0FB6F894FA9AF99A0FBE4A
:102800004F5F5F4F403B510511F03196EDCFE9E648
:10281000F9E08081F999FECF1FBA52BD41BD80BD5C
:102820000FB6F894FA9AF99A0FBE4F5F5F4F443B88
:10283000510511F03196EDCFEDE6F9E08081F9997F
:10284000FECF1FBA52BD41BD80BD0FB6F894FA9AB3
:10285000F99A0FBE4F5F5F4F483B510511F031961B
:10286000EDCFECEDF5E08081F999FECF1FBA52BDB6
:1028700041BD80BD0FB6F894FA9AF99A0FBE4F5F2A
:102880005F4F443C510511F03196EDCF84EB90E061
:102890009A83898386E490E09C838B832FEF30E0DA
:1028A0003E832D8380EF90E098878F8384E690E0CD
:1028B0009A8789873C872B87FE0131968081F99919
:1028C000FECF1FBA52BD41BD80BD0FB6F894FA9A33
:1028D000F99A0FBE4F5F5F4F463C510571F7FE01FD
:1028E00033968081F999FECF1FBA52BD41BD80BD9C
:1028F0000FB6F894FA9AF99A0FBE4F5F5F4F483CB3
:10290000510511F03196EDCFFE0135968081F99990
:10291000FECF1FBA52BD41BD80BD0FB6F894FA9AE2
:10292000F99A0FBE4F5F5F4F4A3C510511F0319647
:10293000EDCFFE0137968081F999FECF1FBA52BDC7
:1029400041BD80BD0FB6F894FA9AF99A0FBE4F5F59
:102950005F4F4C3C510511F03196EDCFFE01399699
:102960008081F999FECF1FBA52BD41BD80BD0FB61F
:10297000F894FA9AF99A0FBE4F5F5F4F4E3C51059B
:1029800011F03196EDCFFE013B968081F999FECF93
:102990001FBA52BD41BD80BD0FB6F894FA9AF99A9C
:1029A0000FBE4F5F5F4F403D510511F03196EDCFA7
:1029B000E7EFF5E08081F999FECF1FBA52BD41BD26
:1029C00080BD0FB6F894FA9AF99A0FBE4F5F5F4F29
:1029D000443D510511F03196EDCFECE2F5E08081F8
:1029E000F999FECF1FBA52BD41BD80BD0FB6F89414
:1029F000FA9AF99A0FBE4F5F5F4F483D510511F0AB
:102A00003196EDCFE0E3F5E08081F999FECF1FBA72
:102A100052BD41BD80BD0FB6F894FA9AF99A0FBE27
:102A20004F5F5F4F4C3D510511F03196EDCFE4E320
:102A3000F5E08081F999FECF1FBA52BD41BD80BD3E
:102A40000FB6F894FA9AF99A0FBE4F5F5F4F403E67
:102A5000510511F03196EDCF80E290E09E878D8791
:102A6000FE013D968081F999FECF1FBA52BD41BD4E
:102A700080BD0FB6F894FA9AF99A0FBE4F5F5F4F78
:102A8000423E510511F03196EDCFE0E0F6E0808155
:102A9000F999FECF1FBA52BD41BD80BD0FB6F89463
:102AA000FA9AF99A0FBE4F5F5F4F443E510511F0FD
:102AB0003196EDCFEEEFF5E08081F999FECF1FBAA8
:102AC00052BD41BD80BD0FB6F894FA9AF99A0FBE77
:102AD000453E510521F0319645EE50E0EDCF809115
:102AE000040290910502A0910602B09107028B8B1F
:102AF0009C8BAD8BBE8BFE01739684E690E02081AB
:102B0000F999FECF1FBA92BD81BD20BD0FB6F894D2
:102B1000FA9AF99A0FBE8736910519F00196319607
:102B2000EECFE1E5F1E0949108C08091C00085FF0F
:102B3000FCCF9093C600319694919923B1F7E4E8C5
:102B4000F3E0949108C08091C00085FFFCCF909382
:102B5000C600319694919923B1F78091C00085FF0A
:102B6000FCCF8AE08093C60066960FB6F894DEBF6D
:102B70000FBECDBFCF91DF910895EF92FF920F93DB
:102B80001F93DF93CF93CDB7DEB7E0970FB6F894DE
:102B9000DEBF0FBECDBFDE011196E8E6F5E080E1B5
:102BA00001900D928150E1F7DE015196E8E5F5E0E4
:102BB00080E101900D928150E1F7DE019196E8E409
:102BC000F5E080E101900D928150E1F789819A81D1
:102BD000AB81BC818093390990933A09A0933B095A
:102BE000B0933C0989899A89AB89BC89809329096A
:102BF00090932A09A0932B09B0932C0989A19AA13B
:102C0000ABA1BCA18093490990934A09A0934B09B9
:102C1000B0934C098D819E81AF81B88580933D0929
:102C200090933E09A0933F09B09340098D899E89F6
:102C3000AF89B88D80932D0990932E09A0932F0909
:102C4000B09330098DA19EA1AFA1B8A580934D0985
:102C500090934E09A0934F09B093500989859A85A6
:102C6000AB85BC858093410990934209A0934309A9
:102C7000B0934409898D9A8DAB8DBC8D80933109B9
:102C800090933209A0933309B093340989A59AA58A
:102C9000ABA5BCA58093510990935209A093530909
:102CA000B09354098D859E85AF85B8898093450979
:102CB00090934609A0934709B09348098D8D9E8D46
:102CC000AF8DB8A18093350990933609A093370949
:102CD000B09338098DA59EA5AFA5B8A980935509D5
:102CE00090935609A0935709B09358090E945078C1
:102CF00080E090E0AAEFB4E480935D0990935E09D0
:102D0000A0935F09B093600980E090E0A8ECB2E482
:102D10008093610990936209A0936309B093640959
:102D200020E030E040E050E02093590930935A0908
:102D300040935B0950935C0980E29EE4A0E0B0E020
:102D40008093250990932609A0932709B093280919
:102D50002093710930937209409373095093740959
:102D60000F2EF0E0EF2EF0E0FF2EF0EA0F2FF0E450
:102D70001F2FF02DE0926509F09266090093670914
:102D8000109368098DEC9CECACECBEE38093690970
:102D900090936A09A0936B09B0936C09E0926D0956
:102DA000F0926E0900936F09109370092093E40567
:102DB0003093E5054093E6055093E7052093E00541
:102DC0003093E1054093E2055093E3052093DC0541
:102DD0003093DD054093DE055093DF058AE999E9DC
:102DE000AAE0B2E48093F7059093F805A093F90563
:102DF000B093FA0580E090E0A0E7B1E480932C0561
:102E000090932D05A0932E05B0932F05C801B7010F
:102E10000E94F88B609330057093310580933205E2
:102E20009093330560E070E080EF91E40E94068C9F
:102E3000609334057093350580933605909337057C
:102E40000E94098B80E090E0A0E8BFE38093380502
:102E500090933905A0933A05B0933B058FE790E036
:102E60009093DF048093DE0489E190E09093E10485
:102E70008093E004E1E5F1E0949108C08091C00006
:102E800085FFFCCF9093C600319694919923B1F7BA
:102E9000E7E5F1E0949108C08091C00085FFFCCF88
:102EA0009093C600319694919923B1F78091C00018
:102EB00085FFFCCF8AE08093C600E0960FB6F894B9
:102EC000DEBF0FBECDBFCF91DF911F910F91FF905D
:102ED000EF9008950F931F93DF93CF93CDB7DEB795
:102EE0006A970FB6F894DEBF0FBECDBF8091040283
:102EF00090910502A0910602B09107028B8B9C8BEA
:102F0000AD8BBE8B1F8A188E198E1A8EE2E0F6E00A
:102F100006E410E0F999FECF12BD01BDF89A80B524
:102F200080830F5F1F4F0A34110511F03196F2CFE5
:102F3000E6E0F6E0F999FECF12BD01BDF89A80B542
:102F400080830F5F1F4F0E34110511F03196F2CFC1
:102F5000EAE0F6E0F999FECF12BD01BDF89A80B51E
:102F600080830F5F1F4F0035110511F03196F2CFAE
:102F7000ECE0F6E0F999FECF12BD01BDF89A80B5FC
:102F800080830F5F1F4F0235110511F03196F2CF8C
:102F9000EEE0F6E0F999FECF12BD01BDF89A80B5DA
:102FA00080830F5F1F4F0635110511F03196F2CF68
:102FB000E2E1F6E0F999FECF12BD01BDF89A80B5C5
:102FC00080830F5F1F4F0835110511F03196F2CF46
:102FD000E4E1F6E0F999FECF12BD01BDF89A80B5A3
:102FE00080830F5F1F4F0A35110511F03196F2CF24
:102FF000E6E1F6E0F999FECF12BD01BDF89A80B581
:1030000080830F5F1F4F0C35110511F03196F2CF01
:10301000E8E1F6E0F999FECF12BD01BDF89A80B55E
:1030200080830F5F1F4F0E35110511F03196F2CFDF
:10303000EAE1F6E0F999FECF12BD01BDF89A80B53C
:1030400080830F5F1F4F0036110511F03196F2CFCC
:10305000FE017796F999FECF12BD01BDF89A80B5B1
:1030600080830F5F1F4F0436110511F03196F2CFA8
:10307000FE013F96F999FECF12BD01BDF89A80B5C9
:1030800080830F5F1F4F0836110511F03196F2CF84
:10309000CE014396BE01615F7F4F43E050E00E9446
:1030A0004810009709F0C6C1E9E3F9E0F999FECFAD
:1030B00012BD01BDF89A80B580830F5F1F4F08379E
:1030C000110511F03196F2CFE9E2F9E0F999FECF5E
:1030D00012BD01BDF89A80B580830F5F1F4F08387D
:1030E000110511F03196F2CFE9E4F9E0F999FECF3C
:1030F00012BD01BDF89A80B580830F5F1F4F08395C
:10310000110511F03196F2CF0E945078EDE5F9E00B
:10311000F999FECF12BD01BDF89A80B580830F5F8B
:103120001F4F0C39110511F03196F2CFE1E6F9E0AD
:10313000F999FECF12BD01BDF89A80B580830F5F6B
:103140001F4F003A110511F03196F2CFE9E5F9E091
:10315000F999FECF12BD01BDF89A80B580830F5F4B
:103160001F4F043A110511F03196F2CFE1E7F9E073
:10317000F999FECF12BD01BDF89A80B580830F5F2B
:103180001F4F083A110511F03196F2CFE5E2F9E050
:10319000F999FECF12BD01BDF89A80B580830F5F0B
:1031A0001F4F0C3A110511F03196F2CFE5E6F9E028
:1031B000F999FECF12BD01BDF89A80B580830F5FEB
:1031C0001F4F003B110511F03196F2CFE9E6F9E00F
:1031D000F999FECF12BD01BDF89A80B580830F5FCB
:1031E0001F4F043B110511F03196F2CFEDE6F9E0E7
:1031F000F999FECF12BD01BDF89A80B580830F5FAB
:103200001F4F083B110511F03196F2CFECEDF5E0C0
:10321000F999FECF12BD01BDF89A80B580830F5F8A
:103220001F4F043C110511F03196F2CFFE0131968B
:10323000F999FECF12BD01BDF89A80B580830F5F6A
:103240001F4F063C110599F7FE013396F999FECF01
:1032500012BD01BDF89A80B580830F5F1F4F083CF7
:10326000110511F03196F2CFFE013596F999FECF96
:1032700012BD01BDF89A80B580830F5F1F4F0A3CD5
:10328000110511F03196F2CFFE013796F999FECF74
:1032900012BD01BDF89A80B580830F5F1F4F0C3CB3
:1032A000110511F03196F2CFFE013996F999FECF52
:1032B00012BD01BDF89A80B580830F5F1F4F0E3C91
:1032C000110511F03196F2CFFE013B96F999FECF30
:1032D00012BD01BDF89A80B580830F5F1F4F003D7E
:1032E000110511F03196F2CFE7EFF5E0F999FECF35
:1032F00012BD01BDF89A80B580830F5F1F4F043D5A
:10330000110511F03196F2CFECE2F5E0F999FECF1C
:1033100012BD01BDF89A80B580830F5F1F4F083D35
:10332000110511F03196F2CFE0E3F5E0F999FECF07
:1033300012BD01BDF89A80B580830F5F1F4F0C3D11
:10334000110511F03196F2CFE4E3F5E0F999FECFE3
:1033500012BD01BDF89A80B580830F5F1F4F003EFC
:10336000110511F03196F2CFFE013D96F999FECF8D
:1033700012BD01BDF89A80B580830F5F1F4F023EDA
:10338000110511F03196F2CFE0E0F6E0F999FECFA9
:1033900012BD01BDF89A80B580830F5F1F4F043EB8
:1033A000110511F03196F2CFEEEFF5E0F999FECF6D
:1033B00012BD01BDF89A80B58083053E110521F04C
:1033C000319605EE10E0F2CF8091FE059091FF0559
:1033D0009093DF048093DE048091000690910106B3
:1033E0009093E1048093E0040E94098BE1E5F1E011
:1033F000949108C08091C00085FFFCCF9093C600D7
:10340000319694919923B1F7E9E7F1E0949108C0DE
:103410008091C00085FFFCCF9093C60031969491B7
:103420009923B1F78091C00085FFFCCF8AE080939B
:10343000C60002C00E94BD156A960FB6F894DEBFA2
:103440000FBECDBFCF91DF911F910F910895CF9304
:10345000DF93C1E5D1E0FE01949108C08091C000E6
:1034600085FFFCCF9093C600319694919923B1F7D4
:10347000E4E7F3E0949108C08091C00085FFFCCFA1
:103480009093C600319694919923B1F78091C00032
:1034900085FFFCCF8AE08093C600FE019491E1E5B0
:1034A000F1E008C08091C00085FFFCCF9093C6007A
:1034B000319694919923B1F74091390950913A0985
:1034C00060913B0970913C098CE693E00E941526BF
:1034D00040913D0950913E0960913F09709140092A
:1034E00089E693E00E9415264091410950914209D6
:1034F000609143097091440986E693E00E94152685
:1035000040914509509146096091470970914809D9
:1035100083E693E00E941526E8E0F2E007C0809180
:10352000C00085FFFCCF31969093C600908199230F
:10353000B1F78091C00085FFFCCF8AE08093C60080
:10354000FE019491E1E5F1E008C08091C00085FFA3
:10355000FCCF9093C600319694919923B1F7E9E49A
:10356000F3E0949108C08091C00085FFFCCF909358
:10357000C600319694919923B1F78091C00085FFE0
:10358000FCCF8AE08093C600FE019491E1E5F1E072
:1035900008C08091C00085FFFCCF9093C600319693
:1035A00094919923B1F74091290950912A0960918A
:1035B0002B0970912C0980E493E00E94152640911C
:1035C0002D0950912E0960912F09709130098DE3DA
:1035D00093E00E9415264091310950913209609183
:1035E0003309709134098AE393E00E9415264091D3
:1035F000350950913609609137097091380987E390
:1036000093E00E941526E8E0F2E007C08091C00038
:1036100085FFFCCF31969093C60090819923B1F736
:103620008091C00085FFFCCF8AE08093C600FE0138
:103630009491E1E5F1E008C08091C00085FFFCCFE6
:103640009093C600319694919923B1F7E9E1F3E0A4
:10365000949108C08091C00085FFFCCF9093C60074
:10366000319694919923B1F78091C00085FFFCCFEA
:103670008AE08093C600FE019491E1E5F1E008C084
:103680008091C00085FFFCCF9093C6003196949145
:103690009923B1F74091490950914A0960914B092A
:1036A00070914C0980E193E00E94292640914D09D8
:1036B00050914E0960914F09709150098DE093E04F
:1036C0000E94292640915109509152096091530955
:1036D000709154098AE093E00E942926409155098F
:1036E00050915609609157097091580987E093E00D
:1036F0000E942926E8E0F2E007C08091C00085FF23
:10370000FCCF31969093C60090819923B1F78091B8
:10371000C00085FFFCCF8AE08093C600FE01949133
:10372000E1E5F1E008C08091C00085FFFCCF9093F7
:10373000C600319694919923B1F7E2EDF2E09491AD
:1037400008C08091C00085FFFCCF9093C6003196E1
:1037500094919923B1F78091C00085FFFCCF8AE056
:103760008093C600FE019491E1E5F1E008C08091EC
:10377000C00085FFFCCF9093C600319694919923A9
:10378000B1F740915D0950915E0960915F097091B8
:10379000600989EC92E00E941526409161095091E0
:1037A0006209609163097091640986EC92E00E945D
:1037B0001526E8E0F2E007C08091C00085FFFCCF4D
:1037C00031969093C60090819923B1F78091C00003
:1037D00085FFFCCF8AE08093C600FE019491E1E56D
:1037E000F1E008C08091C00085FFFCCF9093C60037
:1037F000319694919923B1F7E3E1F2E0949108C0F6
:103800008091C00085FFFCCF9093C60031969491C3
:103810009923B1F78091C00085FFFCCF8AE08093A7
:10382000C600FE019491E1E5F1E008C08091C0007E
:1038300085FFFCCF9093C600319694919923B1F700
:103840004091590950915A0960915B0970915C0946
:103850008AE092E00E941526409171095091720908
:10386000609173097091740987E092E00E941526B7
:1038700040912509509126096091270970912809E6
:1038800084E092E00E9429264091650950916609E2
:10389000609167097091680981E092E00E941526A5
:1038A0004091690950916A0960916B0970916C09A6
:1038B0008EEF91E00E94152640916D0950916E099E
:1038C00060916F09709170098BEF91E00E9415264D
:1038D000E8E0F2E007C08091C00085FFFCCF3196A0
:1038E0009093C60090819923B1F78091C00085FF25
:1038F000FCCF8AE08093C600FE019491E1E5F1E0FF
:1039000008C08091C00085FFFCCF9093C60031961F
:1039100094919923B1F7E9EEF1E0949108C0809178
:10392000C00085FFFCCF9093C600319694919923F7
:10393000B1F78091C00085FFFCCF8AE08093C6007C
:10394000FE019491E1E5F1E008C08091C00085FF9F
:10395000FCCF9093C600319694919923B1F7409192
:10396000DC055091DD056091DE057091DF0580EE8C
:1039700091E00E9415264091E0055091E10560918B
:10398000E2057091E3058DED91E00E9415264091CE
:10399000E4055091E5056091E6057091E7058AED33
:1039A00091E00E941526E8E0F2E007C08091C00097
:1039B00085FFFCCF31969093C60090819923B1F793
:1039C0008091C00085FFFCCF8AE08093C600FE0195
:1039D0009491E1E5F1E008C08091C00085FFFCCF43
:1039E0009093C600319694919923B1F7ECECF1E0F5
:1039F000949108C08091C00085FFFCCF9093C600D1
:103A0000319694919923B1F78091C00085FFFCCF46
:103A10008AE08093C600FE019491E1E5F1E008C0E0
:103A20008091C00085FFFCCF9093C60031969491A1
:103A30009923B1F740912C0550912D0560912E05E9
:103A400070912F0582EC91E00E941526609130055F
:103A50007091310580913205909133050E94FF8B62
:103A6000AB01BC018FEB91E00E94152660913405FB
:103A70007091350580913605909137050E940D8C27
:103A8000AB01BC018CEB91E00E941526E8E0F2E06E
:103A900007C08091C00085FFFCCF31969093C6008F
:103AA00090819923B1F78091C00085FFFCCF8AE017
:103AB0008093C600FE019491E1E5F1E008C0809199
:103AC000C00085FFFCCF9093C60031969491992356
:103AD000B1F7E4EAF1E0949108C08091C00085FF5D
:103AE000FCCF9093C600319694919923B1F7E9E009
:103AF000F2E007C08091C00085FFFCCF3196909323
:103B0000C60090819923B1F76091E0047091E104BF
:103B100084EB98E04AE050E00E94EF72EEE0F2E0C1
:103B200007C08091C00085FFFCCF31969093C600FE
:103B300090819923B1F76091DE047091DF0484EBEA
:103B400098E04AE050E00E94EF72E8E0F2E007C03F
:103B50008091C00085FFFCCF31969093C600908184
:103B60009923B1F78091C00085FFFCCF8AE0809354
:103B7000C600FE019491E1E5F1E008C08091C0002B
:103B800085FFFCCF9093C600319694919923B1F7AD
:103B9000E3E9F1E0949108C08091C00085FFFCCF7B
:103BA0009093C600319694919923B1F74091F7050F
:103BB0005091F8056091F9057091FA05705884EB01
:103BC00098E022E030E00E94CA73E8E0F2E007C02B
:103BD0008091C00085FFFCCF31969093C600908104
:103BE0009923B1F78091C00085FFFCCF8AE08093D4
:103BF000C600DF91CF9108950895CF93DF93209170
:103C00003206309133062F5F3F4F309333062093B7
:103C10003206C0913006D0913106C217D30758F44E
:103C2000CF37D10540F49FB7F89480910B018062A3
:103C300080930B019FBFA0913406B0913506A21767
:103C4000B30758F4AF37B10540F49FB7F8948091AB
:103C50000B018F7E80930B019FBFE0913806F0919E
:103C60003906E217F30720F4EF37F10508F4739AE9
:103C700060913A0670913B066217730758F46F37EC
:103C8000710540F49FB7F8948091020180618093A0
:103C900002019FBF40913C0650913D0642175307D9
:103CA00020F44F37510508F42E9A809136069091F2
:103CB00037068217930740F5CD2B41F09FB7F89454
:103CC00080910B018F7D80930B019FBFAB2B41F047
:103CD0009FB7F89480910B01806180930B019FBF87
:103CE000EF2B09F07398672B41F09FB7F894809100
:103CF00002018F7E809302019FBF452B09F02E9811
:103D00001092330610923206DF91CF9108954091C0
:103D10004D06442349F480914E06882329F480916E
:103D20004F06882309F492C081E0809350062091C9
:103D30004B0630914C068091E5049091E604821781
:103D4000930708F078C02091E704222311F144235F
:103D500049F0809138069091390601969093390682
:103D60008093380680914E06882349F080913A0668
:103D700090913B06019690933B0680933A06809182
:103D80004F06882359F180913C0690913D0601969B
:103D900021C0442349F0809138069091390601975B
:103DA000909339068093380680914E06882349F017
:103DB00080913A0690913B06019790933B06809341
:103DC0003A0680914F06882349F080913C069091F5
:103DD0003D06019790933D0680933C0680913806FE
:103DE000909139068F37910511F0892B11F44423F6
:103DF000D1F480913A0690913B068F37910511F0EE
:103E0000892B21F480914E06882369F480913C0629
:103E100090913D068F37910511F0892B41F48091E7
:103E20004F06882321F081E028272093E704109291
:103E30004C0610924B0680914B0690914C060196D1
:103E400090934C0680934B064423A9F480914E0630
:103E5000882389F480914F06882369F48091500665
:103E6000882349F010924C0610924B06109250068F
:103E700081E08093E7040895809124060895677097
:103E80007070E82FF0E0E75BF94E84918B3028F4F6
:103E90008830A0F4863090F106C08E30D0F08F507C
:103EA000833060F521C08091B100887F8093B1009C
:103EB0008091B100862B8093B1000895809191008C
:103EC000887F8093910080919100862B8093910050
:103ED00008958091A100887F8093A1008091A10026
:103EE000862B8093A100089580912101887F809383
:103EF000210180912101862B8093210108950F9348
:103F00001F938091DE049091DF049093FF058093CE
:103F1000FE058091E0049091E10490930106809366
:103F2000000605E216E0C8010E94CD73C80105969F
:103F30000E94CD731F910F91089580913806909142
:103F4000390690933F0680933E0680913A06909101
:103F50003B06909341068093400680913C069091E9
:103F60003D0690934306809342060E94DC8B8FE7C8
:103F700090E0909339068093380690933B068093A7
:103F80003A0610923D0610923C0680912406882342
:103F900009F036C081E080932406809162069091FA
:103FA0006306A0916406B0916506809366069093BF
:103FB0006706A0936806B0936906EAE9F3E0949176
:103FC00008C08091C00085FFFCCF9093C600319659
:103FD00094919923B1F7E1EAF3E0949108C08091BC
:103FE000C00085FFFCCF9093C60031969491992331
:103FF000B1F78091C00085FFFCCF8AE08093C600B6
:10400000769A85E690E09093AA0E8093A90E089583
:10401000809138069091390690933F0680933E0632
:1040200080913A0690913B0690934106809340061A
:1040300080913C0690913D06909343068093420602
:10404000A098119A80E090E0A0E0B0E0809347064D
:1040500090934806A0934906B0934A060E94DC8BD1
:104060005F9A1092F4058A9A1092F5059FB7F8941A
:10407000809108018160809308019FBF1092F6052E
:10408000129A8FE790E09093390680933806109249
:104090003B0610923A0610923D0610923C0681E0D3
:1040A0008093440680932406EAE9F3E0949108C0E3
:1040B0008091C00085FFFCCF9093C600319694910B
:1040C0009923B1F7E6E3F4E0949108C08091C00031
:1040D00085FFFCCF9093C600319694919923B1F758
:1040E0008091C00085FFFCCF8AE08093C600769A5D
:1040F00086E690E09093AA0E8093A90E0895809191
:1041000038069091390690933F0680933E06809141
:104110003A0690913B069093410680934006809129
:104120003C0690913D069093430680934206A098EA
:10413000119A80E090E0A0E0B0E080934706909371
:104140004806A0934906B0934A060E94DC8B5F9A0A
:104150001092F4058A9A1092F5059FB7F894809111
:1041600008018160809308019FBF1092F605129AA2
:104170008FE790E0909339068093380610923B06C3
:1041800010923A0610923D0610923C0681E0809310
:104190004406809324060E9425A1EAE9F3E0949165
:1041A00008C08091C00085FFFCCF9093C600319677
:1041B00094919923B1F7E7E1F4E0949108C08091DC
:1041C000C00085FFFCCF9093C6003196949199234F
:1041D000B1F78091C00085FFFCCF8AE08093C600D4
:1041E000769A84E690E09093AA0E8093A90E80912F
:1041F000030180FD06C08CE690E09093AA0E8093A8
:10420000A90E8091030181FD06C08DE690E0909398
:10421000AA0E8093A90E649B06C08BE690E0909353
:10422000AA0E8093A90E659B06C08AE690E0909343
:10423000AA0E8093A90E08958091030180FD09C004
:104240007A9907C0669905C081E08093EA040E94CC
:104250007F20659B0DC04F990BC0669909C0809166
:104260005206882329F481E08093E9040E947F208C
:10427000649B0AC08091E904882331F04F9904C0FF
:10428000669902C00E947F208091030181FD0AC0CF
:104290008091EA04882331F07A9904C0669902C0BB
:1042A0000E947F2008950E9409AE60936A06709371
:1042B0006B0680936C0690936D06E5E5F4E09491AF
:1042C00008C08091C00085FFFCCF9093C600319656
:1042D00094919923B1F78091C00085FFFCCF8AE0CB
:1042E0008093C60008951F93182F8DE89FE060E526
:1042F00070E00E945AA98DE89FE0612F0E94DCA91E
:104300008DE89FE00E941FAA8DE89FE060E570E0C5
:1043100041E050E00E9430AA0E9409AE60935C0622
:1043200070935D0680935E0690935F0611E002C075
:10433000109360068DE89FE00E9464A9892BF1F438
:10434000809160068823D1F40E9409AE20915C061A
:1043500030915D0640915E0650915F06621B730BC3
:10436000840B950B695E73408040904018F3E0CF5A
:104370008DE89FE00E946DA91F91089580916006CD
:104380008823B1F38FE3F8CF8DE89FE00E9434AA31
:1043900080E00E9473218093530681E00E94732184
:1043A0008093540682E00E9473218093550683E037
:1043B0000E9473218093560684E00E9473218093AB
:1043C000570685E00E9473218093580686E00E947C
:1043D00073218093590687E00E947321982F809360
:1043E0005A0610926006809153068F33E9F480914B
:1043F00054068F33C9F4809155068F33A9F4809108
:1044000056068F3389F4809157068F3369F4809173
:1044100058068F3349F4809159068F3329F49F331E
:1044200019F410925B06089581E080935B0608956D
:10443000AF92BF92CF92DF92EF92FF920F931F93B2
:104440000E9409AE20917206309173064091740665
:1044500050917506261737074807590708F067C0B7
:104460002C503E4F4F4F5F4F209372063093730690
:1044700040937406509375066091820E7091830E7E
:10448000882777FD8095982F0E9468B27B018C0168
:1044900020E030E040E050E00E94C6B1882354F4B0
:1044A0000F2EF0E0EF2EF0E0FF2EF0E00F2FF0E007
:1044B0001F2FF02DD0908C0EC0908D0EB0908E0ED0
:1044C000A0908F0EC801B7012D2D3C2D4B2D5A2DDC
:1044D0000E94D4B3181634F08D2D9C2DAB2DBA2D1F
:1044E0007C018D01C801B70120E030E04CE552E4C9
:1044F0000E94D4B318165CF480917606882339F4B0
:1045000085E360E00E945EAD81E080937606C8019D
:10451000B70120E030E048E552E40E94C6B18823AC
:1045200034F485E361E00E945EAD109276061F913F
:104530000F91FF90EF90DF90CF90BF90AF900895D4
:10454000EF92FF920F931F930E9409AEE0906E06C8
:10455000F0906F06009170061091710620916A0626
:1045600030916B0640916C0650916D06621B730B87
:10457000840B950BE616F7060807190738F4E114C3
:10458000F1040105110511F00E947F208091EF04D4
:104590009091F004A091F104B091F2040097A1056C
:1045A000B10591F10E9409AE20916A0630916B0627
:1045B00040916C0650916D06621B730B840B950B3A
:1045C0002091EF043091F0044091F1045091F204F5
:1045D0002617370748075907B8F49091660E80915F
:1045E000670E981789F45F9A1092F4058A9A1092D0
:1045F000F5059FB7F89480910801816080930801C8
:104600009FBF1092F605129A0E9418220E948C7B7E
:104610008091090180FF26C04F9B1AC07A9B18C069
:104620008091060180FF14C0029B12C0909B1AC0AB
:1046300060914706709148068091490690914A061C
:1046400020E030E040E050E00E94D4B3181654F46B
:104650008091E304882331F08091E404882311F0F1
:104660000E940820659B3AC0649B38C081E080931B
:104670004506769A10924D0610924E0610924F06FD
:1046800084E690E09093E6048093E5041092390666
:104690001092380610923B0610923A068FEF90E087
:1046A00090933D0680933C0603C076981092450691
:1046B0008091090180FD07C08091E304882319F4EB
:1046C00081E08093E3040E941C210E94FD1D0E9452
:1046D000871E1F910F91FF90EF90089580914506DE
:1046E000882319F7E5CF6F927F928F929F92AF92B6
:1046F000BF92CF92DF92EF92FF920F931F93F82E0B
:1047000060917706709178068091790690917A068B
:1047100020917B0630917C0640917D0650917E066B
:104720000E94E1B33B014C0100D000D000D00DB796
:104730001EB70F5F1F4F6091BA047091BB048827AA
:1047400077FD8095982F0E9468B22091F3043091F4
:10475000F4044091F5045091F6040E94A6B420E0C0
:1047600030E040E752E40E94CDB120E030E048EC78
:1047700052E40E94CDB15B016C01F801608271824C
:1047800082829382F4828091FB0585838CEC95E094
:1047900063E876E047E756E020E001E032E0E32E10
:1047A0000E94EF978091830690918406A0918506E0
:1047B000B09186068093CC059093CD05A093CE054D
:1047C000B093CF058091870690918806A0918906C5
:1047D000B0918A068093D0059093D105A093D2051D
:1047E000B093D30580918B0690918C06A0918D0695
:1047F000B0918E068093D4059093D505A093D605ED
:10480000B093D70580918F0690919006A091910664
:10481000B09192068093D8059093D905A093DA05BC
:10482000B093DB058DB79EB706960FB6F8949EBF82
:104830000FBE8DBF0E9409AE60936A0670936B062F
:1048400080936C0690936D061F910F91FF90EF90EF
:10485000DF90CF90BF90AF909F908F907F906F90A0
:1048600008954F925F926F927F928F929F92AF9234
:10487000BF92CF92DF92EF92FF920F931F93DF933D
:10488000CF9300D000D0CDB7DEB70E9409AE6093C1
:104890006A0670936B0680936C0690936D06809108
:1048A000830690918406A0918506B091860689833F
:1048B0009A83AB83BC836091CC057091CD058091C8
:1048C000CE059091CF0529813A814B815C810E9470
:1048D000C6B1882309F09DC0409087065090880695
:1048E0006090890670908A066091D0057091D1051C
:1048F0008091D2059091D305A30192010E94C6B187
:10490000882309F086C000D0CDB6DEB60894C11C5D
:10491000D11CE0908B06F0908C0600918D061091D2
:104920008E066091F3047091F4048091F5049091E7
:10493000F60420E030E040E752E40E94CDB14B01A4
:104940005C018BEF95E0D6018D939C9369817A8110
:104950008B819C81A3019201EFE8CE2EE6E0DE2E52
:104960000E94757E0F900F9080918306909184062F
:10497000A0918506B09186068093CC059093CD05D5
:10498000A093CE05B093CF058091870690918806BD
:10499000A0918906B0918A068093D0059093D105A5
:1049A000A093D205B093D30580918B0690918C068D
:1049B000A0918D06B0918E068093D4059093D50575
:1049C000A093D605B093D70580918F06909190065D
:1049D000A0919106B09192068093D8059093D90545
:1049E000A093DA05B093DB050F900F900F900F9016
:1049F000CF91DF911F910F91FF90EF90DF90CF90BB
:104A0000BF90AF909F908F907F906F905F904F90EE
:104A1000089500D0CDB6DEB60894C11CD11C4090DC
:104A20008706509088066090890670908A06E0900C
:104A30008B06F0908C0600918D0610918E06609189
:104A4000BA047091BB04882777FD8095982F0E9447
:104A500068B22091F3043091F4044091F504509130
:104A6000F6040E94A6B420E030E040E752E40E9441
:104A7000CDB120E030E048EC52E40E94CDB14B01D2
:104A80005C018BEF95E0F601918380835FCF84EB2F
:104A900098E00E94E671E8E5F4E0949108C0809106
:104AA000C00085FFFCCF9093C60031969491992366
:104AB000B1F740916206509163066091640670916F
:104AC00065064F5F5F4F6F4F7F4F84EB98E02AE0A2
:104AD00030E00E94BA728091C00085FFFCCF8AE06E
:104AE0008093C6000E94532108954F925F926F9267
:104AF0007F928F929F92AF92BF92CF92DF92EF926E
:104B0000FF920F931F934090F3045090F404609031
:104B1000F5047090F6040F2EF0E0AF2EF0E4BF2EF7
:104B2000FCE1CF2EF6E4DF2EF02DA092F304B0923C
:104B3000F404C092F504D092F6046093CC0570930F
:104B4000CD058093CE059093CF052093D00530936B
:104B5000D1054093D2055093D305E092D405F0924D
:104B6000D5050093D6051093D70500D0EBEFF5E0FF
:104B7000ADB7BEB71296FC93EE931197F8EDCF2E1A
:104B8000F5E0DF2E0F2EFBEA8F2EFAEA9F2EF6E2DB
:104B9000AF2EF3E4BF2EF02D0E94757E0F900F9084
:104BA0000E9448A14092F3045092F4046092F504EC
:104BB0007092F6041F910F91FF90EF90DF90CF90CD
:104BC000BF90AF909F908F907F906F905F904F902D
:104BD00008958091F3049091F404A091F504B091AC
:104BE000F6048093980690939906A0939A06B09342
:104BF0009B068091BA049091BB049093CB0580935F
:104C0000CA0584E690E09093BB048093BA040E94A6
:104C100009AE60936A0670936B0680936C0690935E
:104C20006D0681E00E941FA00895FC01949108C0C8
:104C30008091C00085FFFCCF9093C600319694917F
:104C40009923B1F784EB98E022E030E00E94CA7328
:104C50000895FC01949108C08091C00085FFFCCFAD
:104C60009093C600319694919923B1F784EB98E024
:104C70002AE030E00E948A72089540919E06509189
:104C80009F0620E630E0B901469F9001479F300D16
:104C9000569F300D1124682F772767FD7095C90145
:104CA0008056994F0E9436109C0190939D068093E8
:104CB0009C0680E0232B09F081E0089585B5887F6C
:104CC000826085BD84E06FE770E00E94D2AE85E02F
:104CD00061E00E94ABAC87E061E00E94ABAC269A39
:104CE00085E361E00E94ABAC81E360E00E94ABAC85
:104CF0008DE261E00E94ABAC8CE261E00E94ABAC63
:104D000089E261E00E94ABAC87E161E00E94ABAC5C
:104D100089E161E00E94ABAC8CE060E00E94ABAC4A
:104D20008AE060E00E94ABAC89E060E00E94ABAC3E
:104D300083E060E00E94ABAC6A98809101018068DA
:104D4000809301019B989C98569A6E9A739A9FB78C
:104D5000F894809102018061809302019FBF2E9A96
:104D60008CE06FEF70E00E94D2AE28989FB7F89465
:104D700080910B018F7E80930B019FBF9FB7F894AA
:104D800080910B01806280930B019FBFA098119AC4
:104D9000139A9FB7F894809102018F778093020154
:104DA0009FBF5E9A10923306109232068FE790E012
:104DB000909337068093360610923506109234068B
:104DC0001092310610923006109239061092380671
:104DD00010923B0610923A0610923D0610923C0645
:104DE00085E296E060ED75E00E94CA748AE296E082
:104DF00066EB73E00E94CA741092440621E020938F
:104E0000E30480E090E0A0E0B0E080934706909358
:104E10004806A0934906B0934A06109239061092AC
:104E2000380610923B0610923A0610923D061092F8
:104E30003C0620934D0620934E0610924F0688ECB8
:104E400090E09093E6048093E5040E94C42184EFEF
:104E500091E020E931E0F9013197F1F70197D9F7B5
:104E600085B5887F836085BD84E06FEF70E00E9428
:104E7000D2AE8CE291E020E931E0F9013197F1F70F
:104E80000197D9F785B5887F826085BD84E06FE79B
:104E900070E00E94D2AE84EF91E020E931E0F901A8
:104EA0003197F1F70197D9F785B5887F836085BD84
:104EB00084E06FEF70E00E94D2AE08952091D40498
:104EC0003091D50437FD40C01398C901880F991F50
:104ED000880F991F820F931F8B5D994F60E070E0E0
:104EE0000E94D6752091D4043091D504C901880F51
:104EF000991F880F991F820F931F6091DE04709194
:104F0000DF048B5D994F0E94CA746CE271E080E00F
:104F100090E00E9417AE2091D4043091D504C901CD
:104F2000880F991F880F991F820F931F8B5D994FD0
:104F30000E94E77388E893E120E931E0F9013197B5
:104F4000F1F70197D9F7139A08952091D40430917D
:104F5000D50437FD40C01398C901880F991F880FE9
:104F6000991F820F931F8B5D994F60E070E00E9444
:104F7000D6752091D4043091D504C901880F991FAA
:104F8000880F991F820F931F6091E0047091E104D4
:104F90008B5D994F0E94CA746CE271E080E090E0F2
:104FA0000E9417AE2091D4043091D504C901880F16
:104FB000991F880F991F820F931F8B5D994F0E9435
:104FC000E77388E893E120E931E0F9013197F1F7DF
:104FD0000197D9F7139A08950F931F93CF93DF93F7
:104FE00085E296E06BE070E00E94D6758AE296E07A
:104FF00066E070E00E94D675C0EDD4E008ED14E0E4
:105000002881398137FD0EC0C901880F991F880F8B
:10501000991F820F931FF801608171818B5D994FF9
:105020000E94CA7422960C5F1F4FF4E0C63DDF0752
:1050300039F76CE271E080E090E00E9417AE2091B9
:10504000D4043091D504C901880F991F880F991F86
:10505000820F931F8B5D994F0E94E773DF91CF9171
:105060001F910F9108952F923F924F925F926F92EE
:105070007F928F929F92AF92BF92CF92DF92EF92E8
:10508000FF920F931F93DF93CF93CDB7DEB7649753
:105090000FB6F894DEBF0FBECDBF6D837E838F83C6
:1050A000988729873A874B875C876091CC057091F8
:1050B000CD058091CE059091CF052091D0053091FE
:1050C000D1054091D2055091D3050E9475256D817F
:1050D0007E818F81988520E030E048E851E40E948D
:1050E000ECB04B015C0169857A858B859C8520E05D
:1050F00030E046E752E40E94ECB09B01AC01E09046
:10510000D405F090D5050091D6051091D705C501BD
:10511000B4010E947525CC2011F00E945E2788EF13
:1051200094E00E94029D6091B2047091B30480915A
:10513000B4049091B5046093F3047093F4048093E5
:10514000F5049093F60400D0CDB6DEB60894C11CE9
:10515000D11CE090CC05F090CD050091CE051091CA
:10516000CF054090D0055090D1056090D205709049
:10517000D30520E030E040E752E40E94CDB14B017E
:105180005C01EBEFF5E0D601ED93FC93C801B701AC
:10519000A30192010F2EF0E0EF2EF0E0FF2EF0E2DF
:1051A0000F2FF1EC1F2FF02DE8EDCE2EE5E0DE2ED7
:1051B0000E94757E0F900F900E9448A182E00E948D
:1051C00006A14B015C016091CC057091CD058091E9
:1051D000CE059091CF052091D0053091D105409119
:1051E000D2055091D305850174010E94997823EC72
:1051F00036E0F90185919591A591B49189839A83BF
:10520000AB83BC83C501B40129813A814B815C81A8
:105210000E94EDB06D877E878F87988B00D0CDB6CA
:10522000DEB60894C11CD11CE090CC05F090CD05F1
:105230000091CE051091CF054090D0055090D1053A
:105240006090D2057090D3056091F3047091F404DE
:105250008091F5049091F60420E030E040E752E4BC
:105260000E94CDB14B015C01EBEFF5E0D601ED936F
:10527000FC93C801B701A3019201ED84FE840F8560
:105280001889B8EDCB2EB5E0DB2E0E94757E0F900D
:105290000F900E9448A16091B2047091B304809174
:1052A000B4049091B50420E030E040E85EE30E9451
:1052B000A6B45B016C016093F3047093F4048093D3
:1052C000F5049093F60400D02DB63EB60894211C48
:1052D000311C4090CC055090CD056090CE0570906B
:1052E000CF058091D0059091D105A091D205B091C4
:1052F000D305898B9A8BAB8BBC8B69817A818B812F
:105300009C8120E030E040E050EC0E94A6B49B017C
:10531000AC016D857E858F8598890E94EDB07B01FB
:105320008C01C601B50120E030E040E752E40E9464
:10533000CDB14B015C01EBEFF5E0D101ED93FC93B6
:10534000C301B20129893A894B895C89A8EDCA2E2B
:10535000A5E0DA2E0E94757E0F900F900E9448A162
:1053600082E00E9406A17B018C016093D4057093BA
:10537000D5058093D6059093D7056091CC057091A3
:10538000CD058091CE059091CF052091D00530912B
:10539000D1054091D2055091D3050E949978109182
:1053A000D4050091D505F090D605E090D705ECEF37
:1053B000F6E0949108C08091C00085FFFCCF9093E7
:1053C000C600319694919923B1F7E7EFF6E09491F6
:1053D00008C08091C00085FFFCCF9093C600319635
:1053E00094919923B1F784EB98E04D815E816F81B0
:1053F000788522E030E00E94CA73E2EFF6E09491F3
:1054000008C08091C00085FFFCCF9093C600319604
:1054100094919923B1F784EB98E049855A856B857F
:105420007C8522E030E00E94CA73EDEEF6E09491B4
:1054300008C08091C00085FFFCCF9093C6003196D4
:1054400094919923B1F784EB98E0212F302FEF2D21
:10545000FE2DA901BF0122E030E00E94CA73EBEEED
:10546000F6E0949108C08091C00085FFFCCF909336
:10547000C600319694919923B1F7212F302F4F2DEB
:105480005E2DB901CA0164960FB6F894DEBF0FBE57
:10549000CDBFCF91DF911F910F91FF90EF90DF90E3
:1054A000CF90BF90AF909F908F907F906F905F90C4
:1054B0004F903F902F90089580E00E941FA080E0C1
:1054C0000E9422A08091980690919906A0919A0638
:1054D000B0919B068093F3049093F404A093F50499
:1054E000B093F6048091CA059091CB059093BB04CC
:1054F0008093BA040E9409AE60936A0670936B06AB
:1055000080936C0690936D0608952F923F924F9270
:105510005F926F927F928F929F92AF92BF92CF9243
:10552000DF92EF92FF920F931F93DF93CF93CDB74C
:10553000DEB76C970FB6F894DEBF0FBECDBF9C8F61
:105540008B8F8330910508F0DCC3FC01E455F94FE3
:10555000E491AE2EBB24A7FCB09480915106882321
:1055600049F02B8D3C8D2230310521F4B094A1946B
:10557000B108B39480915206882341F04B8D5C8D25
:10558000452B21F4B094A194B108B394EB8DFC8D1C
:10559000EE0FFF1FEE0FFF1FE453FA4F80E090E085
:1055A000A0E0B0E080839183A283B3836091CC05B7
:1055B0007091CD058091CE059091CF052091D005B9
:1055C0003091D1054091D2055091D305E090D4059A
:1055D000F090D5050091D6051091D705E8EDCE2EB7
:1055E000E5E0DE2E0E9499781E821D828B8D9C8DB7
:1055F000029721F4A1E0B0E0BE83AD838091E8047E
:1056000090E0ED81FE818E239F23892B19F00E946B
:105610005E2720C0EB8DFC8DEE0FFF1FE053FB4F8C
:105620000190F081E02DF7FD15C0CF01880F991F83
:10563000880F991F8E0F9F1FEB8DFC8DEE0FFF1FA4
:10564000EE0FFF1FEA52FB4F608171818B5D994F16
:105650000E94CA740B8D1C8D000F111F000F111FAB
:10566000F801E155F94FC590D590E590F490B5015A
:10567000882777FD8095982F0E9468B269837A8386
:105680008B839C83F3E8AF2EF6E0BF2EA00EB11EF5
:10569000C701B60120E030E040EC5FE30E94A6B411
:1056A00029813A814B815C810E94A6B4D5016D931A
:1056B0007D938D939C93139706551B4FF801808122
:1056C0009181A281B3818093F3049093F404A09319
:1056D000F504B093F604809151068823D9F02B8D00
:1056E0003C8D22303105B1F46091B2047091B30465
:1056F0008091B4049091B50420E030E040EC50E497
:105700000E94A6B46093F3047093F4048093F504AC
:105710009093F60400D0CDB6DEB60894C11CD11C1F
:1057200040908306509084066090850670908606AF
:105730008091870690918806A0918906B0918A068B
:105740008F839887A987BA87E0908B06F0908C06A4
:1057500000918D0610918E066091F3047091F4040F
:105760008091F5049091F60420E030E040E752E4A7
:105770000E94CDB14B015C01EBEFF5E0D601ED935A
:10578000FC93C301B2012F81388549855A85EFE822
:10579000CE2EE6E0DE2E0E94757E0F900F900E94C6
:1057A00048A12B8C3C8C220C331C220C331C910105
:1057B00024533A4F3C872B8780E090E0A0E0B0E094
:1057C000F90180839183A283B3836091CC057091AA
:1057D000CD058091CE059091CF052091D0053091D7
:1057E000D1054091D2055091D305E090D405F090B9
:1057F000D5050091D6051091D705A8EDCA2EA5E0D4
:10580000DA2E0E949978F101E554F94F45905590B0
:105810006590749091012D57394F3E872D87C301B4
:10582000B201905829813A814B815C810E94A6B4D3
:10583000AD85BE856D937D938D939C93139700D01A
:10584000CDB6DEB60894C11CD11C209183063091E0
:10585000840640918506509186062F87388B498BA8
:105860005A8B8091870690918806A0918906B09105
:105870008A068B8B9C8BAD8BBE8BE0908B06F09059
:105880008C0600918D0610918E066091F304709144
:10589000F4048091F5049091F60420E030E040E7B4
:1058A00052E40E94CDB14B015C01EBEFF5E0D60173
:1058B000ED93FC936F85788989899A892B893C8936
:1058C0004D895E89FFE8CF2EF6E0DF2E0E94757EBF
:1058D0000F900F900E9448A1C301B201A301920151
:1058E0000E94EDB029813A814B815C810E94A6B46F
:1058F000AD85BE856D937D938D939C931397F10138
:10590000E655FB4F608171818281938120E030E018
:1059100040E05FE30E94A6B46093F3047093F40444
:105920008093F5049093F60400D0CDB6DEB60894CB
:10593000C11CD11C4090830650908406609085065F
:1059400070908606209187063091880640918906DE
:1059500050918A062F8B388F498F5A8FE0908B0693
:10596000F0908C0600918D0610918E0620E030E0BC
:1059700040E752E40E94CDB14B015C01EBEFF5E052
:10598000D601ED93FC93C301B2012F89388D498D67
:105990005A8DEFE8CE2EE6E0DE2E0E94757E0F9047
:1059A0000F900E9448A1F101E953F94F659175915B
:1059B00085919491810104521A4FD8012D913D9106
:1059C0004D915C910E94EDB0EB85FC856083718305
:1059D00082839383F101ED52F94F65917591859121
:1059E0009491B8EEEB2EB5E0FB2EE20CF31CD8013F
:1059F0002D913D914D915C910E94EDB0F701608336
:105A0000718382839383F101E152F94F659175911E
:105A10008591949124EC34E0220E331ED8012D910F
:105A20003D914D915C910E94EDB0F10160837183D5
:105A3000828393832B8D3C8D2230310589F48091B4
:105A40005106882309F18AE999EDAEE4B3E4809325
:105A5000D4059093D505A093D605B093D70514C06F
:105A60004B8D5C8D452B81F480915206882361F02B
:105A700080E090E0A6E5B3E48093CC059093CD055B
:105A8000A093CE05B093CF05EB8DFC8DEE0FFF1FDD
:105A9000EE0FFF1FDF01A453BA4F8D919D910D9022
:105AA000BC91A02DED57F94F80839183A283B383DE
:105AB00080E090E0A0E0B0E08093F3049093F404E1
:105AC000A093F504B093F6040E9418A0EB8DFC8D12
:105AD000EC50FA4F81E0808380915206882309F4CC
